:030000000208DB18
:0C08DB00787FE4F6D8FD75810A0209223E
:100967000000000000000000003C18181818183C90
:100977000066FFFFFF7E3C18007E020202027E0037
:100987007E30303032323E000202020202027E0026
:1009970042424242427E0000000000000000000088
:0909BC00010800010900010A0014
:1009A700D2AFC294C293758901758CFC758A67D2E0
:0509B700A9D28C80FEB6
:03000B00020800E8
:0D080000C0E0C083C082C0D075D000C00031
:10080D00758CFC758A677580FFE508B40800400398
:10081D000208B9900827F828287302083F02084EED
:10082D0002085D02086C02087B02088A0208990220
:10083D0008A8C292C291C2900508E50A9009678086
:10084D0068C292C291D2900508E50A900968805954
:10085D00C292D291C2900508E50A900969804AC2F8
:10086D0092D291D2900508E50A90096A803BD29206
:10087D00C291C2900508E50A90096B802CD292C2F4
:10088D0091D2900508E50A90096C801DD292D29103
:10089D00C2900508E50A90096D800ED292D291D2D0
:1008AD0090750800E50A90096E93F5800509E50934
:1008BD00C394FA400E750900050AE50A9436400303
:0308CD00750A00A9
:0B08D000D000D0D0D082D083D0E03226
:1008E7000209A7E493A3F8E493A34003F68001F277
:1008F70008DFF48029E493A3F85407240CC8C33312
:10090700C4540F4420C8834004F456800146F6DFE0
:10091700E4800B01020408102040809009BCE47EAB
:10092700019360BCA3FF543F30E509541FFEE493D5
:10093700A360010ECF54C025E060A840B8E493A39C
:10094700FAE493A3F8E493A3C8C582C8CAC583CAC7
:10095700F0A3C8C582C8CAC583CADFE9DEE780BE7F
:0109C5000031
:00000001FF
